{
  "_format": "hh-sol-artifact-1",
  "contractName": "NFTMarketplace",
  "sourceName": "contracts/NFTMarketplace.sol",
  "abi": [
    {
      "inputs": [],
      "stateMutability": "nonpayable",
      "type": "constructor"
    },
    {
      "anonymous": false,
      "inputs": [
        {
          "indexed": true,
          "internalType": "address",
          "name": "owner",
          "type": "address"
        },
        {
          "indexed": true,
          "internalType": "address",
          "name": "approved",
          "type": "address"
        },
        {
          "indexed": true,
          "internalType": "uint256",
          "name": "tokenId",
          "type": "uint256"
        }
      ],
      "name": "Approval",
      "type": "event"
    },
    {
      "anonymous": false,
      "inputs": [
        {
          "indexed": true,
          "internalType": "address",
          "name": "owner",
          "type": "address"
        },
        {
          "indexed": true,
          "internalType": "address",
          "name": "operator",
          "type": "address"
        },
        {
          "indexed": false,
          "internalType": "bool",
          "name": "approved",
          "type": "bool"
        }
      ],
      "name": "ApprovalForAll",
      "type": "event"
    },
    {
      "anonymous": false,
      "inputs": [
        {
          "indexed": true,
          "internalType": "address",
          "name": "from",
          "type": "address"
        },
        {
          "indexed": true,
          "internalType": "address",
          "name": "to",
          "type": "address"
        },
        {
          "indexed": true,
          "internalType": "uint256",
          "name": "tokenId",
          "type": "uint256"
        }
      ],
      "name": "Transfer",
      "type": "event"
    },
    {
      "anonymous": false,
      "inputs": [
        {
          "indexed": true,
          "internalType": "uint256",
          "name": "tokenId",
          "type": "uint256"
        },
        {
          "indexed": false,
          "internalType": "address",
          "name": "seller",
          "type": "address"
        },
        {
          "indexed": false,
          "internalType": "address",
          "name": "owner",
          "type": "address"
        },
        {
          "indexed": false,
          "internalType": "uint256",
          "name": "price",
          "type": "uint256"
        },
        {
          "indexed": false,
          "internalType": "bool",
          "name": "sold",
          "type": "bool"
        }
      ],
      "name": "idMarketItemCreated",
      "type": "event"
    },
    {
      "inputs": [
        {
          "internalType": "address",
          "name": "to",
          "type": "address"
        },
        {
          "internalType": "uint256",
          "name": "tokenId",
          "type": "uint256"
        }
      ],
      "name": "approve",
      "outputs": [],
      "stateMutability": "nonpayable",
      "type": "function"
    },
    {
      "inputs": [
        {
          "internalType": "address",
          "name": "owner",
          "type": "address"
        }
      ],
      "name": "balanceOf",
      "outputs": [
        {
          "internalType": "uint256",
          "name": "",
          "type": "uint256"
        }
      ],
      "stateMutability": "view",
      "type": "function"
    },
    {
      "inputs": [
        {
          "internalType": "uint256",
          "name": "tokenId",
          "type": "uint256"
        }
      ],
      "name": "createMarketSale",
      "outputs": [],
      "stateMutability": "payable",
      "type": "function"
    },
    {
      "inputs": [
        {
          "internalType": "string",
          "name": "tokenURI",
          "type": "string"
        },
        {
          "internalType": "uint256",
          "name": "price",
          "type": "uint256"
        }
      ],
      "name": "createToken",
      "outputs": [
        {
          "internalType": "uint256",
          "name": "",
          "type": "uint256"
        }
      ],
      "stateMutability": "payable",
      "type": "function"
    },
    {
      "inputs": [],
      "name": "fetchItemsListed",
      "outputs": [
        {
          "components": [
            {
              "internalType": "uint256",
              "name": "tokenId",
              "type": "uint256"
            },
            {
              "internalType": "address payable",
              "name": "seller",
              "type": "address"
            },
            {
              "internalType": "address payable",
              "name": "owner",
              "type": "address"
            },
            {
              "internalType": "uint256",
              "name": "price",
              "type": "uint256"
            },
            {
              "internalType": "bool",
              "name": "sold",
              "type": "bool"
            }
          ],
          "internalType": "struct NFTMarketplace.MarketItem[]",
          "name": "",
          "type": "tuple[]"
        }
      ],
      "stateMutability": "view",
      "type": "function"
    },
    {
      "inputs": [],
      "name": "fetchMarketItem",
      "outputs": [
        {
          "components": [
            {
              "internalType": "uint256",
              "name": "tokenId",
              "type": "uint256"
            },
            {
              "internalType": "address payable",
              "name": "seller",
              "type": "address"
            },
            {
              "internalType": "address payable",
              "name": "owner",
              "type": "address"
            },
            {
              "internalType": "uint256",
              "name": "price",
              "type": "uint256"
            },
            {
              "internalType": "bool",
              "name": "sold",
              "type": "bool"
            }
          ],
          "internalType": "struct NFTMarketplace.MarketItem[]",
          "name": "",
          "type": "tuple[]"
        }
      ],
      "stateMutability": "view",
      "type": "function"
    },
    {
      "inputs": [],
      "name": "fetchMyNFT",
      "outputs": [
        {
          "components": [
            {
              "internalType": "uint256",
              "name": "tokenId",
              "type": "uint256"
            },
            {
              "internalType": "address payable",
              "name": "seller",
              "type": "address"
            },
            {
              "internalType": "address payable",
              "name": "owner",
              "type": "address"
            },
            {
              "internalType": "uint256",
              "name": "price",
              "type": "uint256"
            },
            {
              "internalType": "bool",
              "name": "sold",
              "type": "bool"
            }
          ],
          "internalType": "struct NFTMarketplace.MarketItem[]",
          "name": "",
          "type": "tuple[]"
        }
      ],
      "stateMutability": "view",
      "type": "function"
    },
    {
      "inputs": [
        {
          "internalType": "uint256",
          "name": "tokenId",
          "type": "uint256"
        }
      ],
      "name": "getApproved",
      "outputs": [
        {
          "internalType": "address",
          "name": "",
          "type": "address"
        }
      ],
      "stateMutability": "view",
      "type": "function"
    },
    {
      "inputs": [],
      "name": "getListingPrice",
      "outputs": [
        {
          "internalType": "uint256",
          "name": "",
          "type": "uint256"
        }
      ],
      "stateMutability": "view",
      "type": "function"
    },
    {
      "inputs": [
        {
          "internalType": "address",
          "name": "owner",
          "type": "address"
        },
        {
          "internalType": "address",
          "name": "operator",
          "type": "address"
        }
      ],
      "name": "isApprovedForAll",
      "outputs": [
        {
          "internalType": "bool",
          "name": "",
          "type": "bool"
        }
      ],
      "stateMutability": "view",
      "type": "function"
    },
    {
      "inputs": [],
      "name": "name",
      "outputs": [
        {
          "internalType": "string",
          "name": "",
          "type": "string"
        }
      ],
      "stateMutability": "view",
      "type": "function"
    },
    {
      "inputs": [
        {
          "internalType": "uint256",
          "name": "tokenId",
          "type": "uint256"
        }
      ],
      "name": "ownerOf",
      "outputs": [
        {
          "internalType": "address",
          "name": "",
          "type": "address"
        }
      ],
      "stateMutability": "view",
      "type": "function"
    },
    {
      "inputs": [
        {
          "internalType": "uint256",
          "name": "tokenId",
          "type": "uint256"
        },
        {
          "internalType": "uint256",
          "name": "price",
          "type": "uint256"
        }
      ],
      "name": "reSellToken",
      "outputs": [],
      "stateMutability": "payable",
      "type": "function"
    },
    {
      "inputs": [
        {
          "internalType": "address",
          "name": "from",
          "type": "address"
        },
        {
          "internalType": "address",
          "name": "to",
          "type": "address"
        },
        {
          "internalType": "uint256",
          "name": "tokenId",
          "type": "uint256"
        }
      ],
      "name": "safeTransferFrom",
      "outputs": [],
      "stateMutability": "nonpayable",
      "type": "function"
    },
    {
      "inputs": [
        {
          "internalType": "address",
          "name": "from",
          "type": "address"
        },
        {
          "internalType": "address",
          "name": "to",
          "type": "address"
        },
        {
          "internalType": "uint256",
          "name": "tokenId",
          "type": "uint256"
        },
        {
          "internalType": "bytes",
          "name": "data",
          "type": "bytes"
        }
      ],
      "name": "safeTransferFrom",
      "outputs": [],
      "stateMutability": "nonpayable",
      "type": "function"
    },
    {
      "inputs": [
        {
          "internalType": "address",
          "name": "operator",
          "type": "address"
        },
        {
          "internalType": "bool",
          "name": "approved",
          "type": "bool"
        }
      ],
      "name": "setApprovalForAll",
      "outputs": [],
      "stateMutability": "nonpayable",
      "type": "function"
    },
    {
      "inputs": [
        {
          "internalType": "bytes4",
          "name": "interfaceId",
          "type": "bytes4"
        }
      ],
      "name": "supportsInterface",
      "outputs": [
        {
          "internalType": "bool",
          "name": "",
          "type": "bool"
        }
      ],
      "stateMutability": "view",
      "type": "function"
    },
    {
      "inputs": [],
      "name": "symbol",
      "outputs": [
        {
          "internalType": "string",
          "name": "",
          "type": "string"
        }
      ],
      "stateMutability": "view",
      "type": "function"
    },
    {
      "inputs": [
        {
          "internalType": "uint256",
          "name": "tokenId",
          "type": "uint256"
        }
      ],
      "name": "tokenURI",
      "outputs": [
        {
          "internalType": "string",
          "name": "",
          "type": "string"
        }
      ],
      "stateMutability": "view",
      "type": "function"
    },
    {
      "inputs": [
        {
          "internalType": "address",
          "name": "from",
          "type": "address"
        },
        {
          "internalType": "address",
          "name": "to",
          "type": "address"
        },
        {
          "internalType": "uint256",
          "name": "tokenId",
          "type": "uint256"
        }
      ],
      "name": "transferFrom",
      "outputs": [],
      "stateMutability": "nonpayable",
      "type": "function"
    },
    {
      "inputs": [
        {
          "internalType": "uint256",
          "name": "_listingPrice",
          "type": "uint256"
        }
      ],
      "name": "updateListingPrice",
      "outputs": [],
      "stateMutability": "payable",
      "type": "function"
    }
  ],
  "bytecode": "0x60806040526605543df729c0006009553480156200001c57600080fd5b506040518060400160405280601381526020017f4e4654204d657461766172736520546f6b656e000000000000000000000000008152506040518060400160405280600581526020017f4d594e46540000000000000000000000000000000000000000000000000000008152508160009080519060200190620000a1929190620000e9565b508060019080519060200190620000ba929190620000e9565b5050503373ffffffffffffffffffffffffffffffffffffffff16600a60009054906101000a90505050620001fe565b828054620000f79062000199565b90600052602060002090601f0160209004810192826200011b576000855562000167565b82601f106200013657805160ff191683800117855562000167565b8280016001018555821562000167579182015b828111156200016657825182559160200191906001019062000149565b5b5090506200017691906200017a565b5090565b5b80821115620001955760008160009055506001016200017b565b5090565b60006002820490506001821680620001b257607f821691505b60208210811415620001c957620001c8620001cf565b5b50919050565b7f4e487b7100000000000000000000000000000000000000000000000000000000600052602260045260246000fd5b6140c5806200020e6000396000f3fe60806040526004361061012a5760003560e01c806372b3b620116100ab578063ae677aa31161006f578063ae677aa3146103ea578063b88d4fde14610406578063be9af5361461042f578063c18763f71461044b578063c87b56dd14610476578063e985e9c5146104b35761012a565b806372b3b6201461031f57806385535b251461034f5780638fafd0211461036b57806395d89b4114610396578063a22cb465146103c15761012a565b806323b872dd116100f257806323b872dd1461022857806342842e0e1461025157806345f8fa801461027a5780636352211e146102a557806370a08231146102e25761012a565b806301ffc9a71461012f57806306fdde031461016c578063081812fc14610197578063095ea7b3146101d457806312e85585146101fd575b600080fd5b34801561013b57600080fd5b5061015660048036038101906101519190612de1565b6104f0565b6040516101639190613452565b60405180910390f35b34801561017857600080fd5b506101816105d2565b60405161018e919061346d565b60405180910390f35b3480156101a357600080fd5b506101be60048036038101906101b99190612e87565b610664565b6040516101cb9190613384565b60405180910390f35b3480156101e057600080fd5b506101fb60048036038101906101f69190612da5565b6106aa565b005b34801561020957600080fd5b506102126107c2565b60405161021f91906136ef565b60405180910390f35b34801561023457600080fd5b5061024f600480360381019061024a9190612c9f565b6107cc565b005b34801561025d57600080fd5b5061027860048036038101906102739190612c9f565b61082c565b005b34801561028657600080fd5b5061028f61084c565b60405161029c9190613430565b60405180910390f35b3480156102b157600080fd5b506102cc60048036038101906102c79190612e87565b610b86565b6040516102d99190613384565b60405180910390f35b3480156102ee57600080fd5b5061030960048036038101906103049190612c3a565b610c38565b60405161031691906136ef565b60405180910390f35b61033960048036038101906103349190612e33565b610cf0565b60405161034691906136ef565b60405180910390f35b61036960048036038101906103649190612eb0565b610d32565b005b34801561037757600080fd5b50610380610f27565b60405161038d9190613430565b60405180910390f35b3480156103a257600080fd5b506103ab6111dc565b6040516103b8919061346d565b60405180910390f35b3480156103cd57600080fd5b506103e860048036038101906103e39190612d69565b61126e565b005b61040460048036038101906103ff9190612e87565b611284565b005b34801561041257600080fd5b5061042d60048036038101906104289190612cee565b61131e565b005b61044960048036038101906104449190612e87565b611380565b005b34801561045757600080fd5b506104606115b8565b60405161046d9190613430565b60405180910390f35b34801561048257600080fd5b5061049d60048036038101906104989190612e87565b6118f2565b6040516104aa919061346d565b60405180910390f35b3480156104bf57600080fd5b506104da60048036038101906104d59190612c63565b611a05565b6040516104e79190613452565b60405180910390f35b60007f80ac58cd000000000000000000000000000000000000000000000000000000007bffffffffffffffffffffffffffffffffffffffffffffffffffffffff1916827bffffffffffffffffffffffffffffffffffffffffffffffffffffffff191614806105bb57507f5b5e139f000000000000000000000000000000000000000000000000000000007bffffffffffffffffffffffffffffffffffffffffffffffffffffffff1916827bffffffffffffffffffffffffffffffffffffffffffffffffffffffff1916145b806105cb57506105ca82611a99565b5b9050919050565b6060600080546105e190613990565b80601f016020809104026020016040519081016040528092919081815260200182805461060d90613990565b801561065a5780601f1061062f5761010080835404028352916020019161065a565b820191906000526020600020905b81548152906001019060200180831161063d57829003601f168201915b5050505050905090565b600061066f82611b03565b6004600083815260200190815260200160002060009054906101000a900473ffffffffffffffffffffffffffffffffffffffff169050919050565b60006106b582610b86565b90508073ffffffffffffffffffffffffffffffffffffffff168373ffffffffffffffffffffffffffffffffffffffff161415610726576040517f08c379a000000000000000000000000000000000000000000000000000000000815260040161071d9061366f565b60405180910390fd5b8073ffffffffffffffffffffffffffffffffffffffff16610745611b4e565b73ffffffffffffffffffffffffffffffffffffffff16148061077457506107738161076e611b4e565b611a05565b5b6107b3576040517f08c379a00000000000000000000000000000000000000000000000000000000081526004016107aa906135af565b60405180910390fd5b6107bd8383611b56565b505050565b6000600954905090565b6107dd6107d7611b4e565b82611c0f565b61081c576040517f08c379a0000000000000000000000000000000000000000000000000000000008152600401610813906136cf565b60405180910390fd5b610827838383611ca4565b505050565b6108478383836040518060200160405280600081525061131e565b505050565b6060600061085a6007611f0b565b905060008060005b83811015610903573373ffffffffffffffffffffffffffffffffffffffff16600b6000600184610892919061380d565b815260200190815260200160002060010160009054906101000a900473ffffffffffffffffffffffffffffffffffffffff1673ffffffffffffffffffffffffffffffffffffffff1614156108f0576001836108ed919061380d565b92505b80806108fb906139f3565b915050610862565b5060008267ffffffffffffffff811115610946577f4e487b7100000000000000000000000000000000000000000000000000000000600052604160045260246000fd5b60405190808252806020026020018201604052801561097f57816020015b61096c612a01565b8152602001906001900390816109645790505b50905060005b84811015610b7b573373ffffffffffffffffffffffffffffffffffffffff16600b60006001846109b5919061380d565b815260200190815260200160002060010160009054906101000a900473ffffffffffffffffffffffffffffffffffffffff1673ffffffffffffffffffffffffffffffffffffffff161415610b68576000600182610a12919061380d565b90506000600b60008381526020019081526020016000209050806040518060a0016040529081600082015481526020016001820160009054906101000a900473ffffffffffffffffffffffffffffffffffffffff1673ffffffffffffffffffffffffffffffffffffffff1673ffffffffffffffffffffffffffffffffffffffff1681526020016002820160009054906101000a900473ffffffffffffffffffffffffffffffffffffffff1673ffffffffffffffffffffffffffffffffffffffff1673ffffffffffffffffffffffffffffffffffffffff168152602001600382015481526020016004820160009054906101000a900460ff161515151581525050848681518110610b4b577f4e487b7100000000000000000000000000000000000000000000000000000000600052603260045260246000fd5b6020026020010181905250600185610b63919061380d565b945050505b8080610b73906139f3565b915050610985565b508094505050505090565b6000806002600084815260200190815260200160002060009054906101000a900473ffffffffffffffffffffffffffffffffffffffff169050600073ffffffffffffffffffffffffffffffffffffffff168173ffffffffffffffffffffffffffffffffffffffff161415610c2f576040517f08c379a0000000000000000000000000000000000000000000000000000000008152600401610c269061364f565b60405180910390fd5b80915050919050565b60008073ffffffffffffffffffffffffffffffffffffffff168273ffffffffffffffffffffffffffffffffffffffff161415610ca9576040517f08c379a0000000000000000000000000000000000000000000000000000000008152600401610ca09061354f565b60405180910390fd5b600360008373ffffffffffffffffffffffffffffffffffffffff1673ffffffffffffffffffffffffffffffffffffffff168152602001908152602001600020549050919050565b6000610cfc6007611f19565b6000610d086007611f0b565b9050610d143382611f2f565b610d1e8185612109565b610d28818461217d565b8091505092915050565b3373ffffffffffffffffffffffffffffffffffffffff16600b600084815260200190815260200160002060020160009054906101000a900473ffffffffffffffffffffffffffffffffffffffff1673ffffffffffffffffffffffffffffffffffffffff1614610dd6576040517f08c379a0000000000000000000000000000000000000000000000000000000008152600401610dcd906135ef565b60405180910390fd5b6009543414610e1a576040517f08c379a0000000000000000000000000000000000000000000000000000000008152600401610e11906136af565b60405180910390fd5b6000600b600084815260200190815260200160002060040160006101000a81548160ff02191690831515021790555080600b60008481526020019081526020016000206003018190555033600b600084815260200190815260200160002060010160006101000a81548173ffffffffffffffffffffffffffffffffffffffff021916908373ffffffffffffffffffffffffffffffffffffffff16021790555030600b600084815260200190815260200160002060020160006101000a81548173ffffffffffffffffffffffffffffffffffffffff021916908373ffffffffffffffffffffffffffffffffffffffff160217905550610f186008612380565b610f23333084611ca4565b5050565b60606000610f356007611f0b565b90506000610f436008611f0b565b610f4d6007611f0b565b610f579190613894565b90506000808267ffffffffffffffff811115610f9c577f4e487b7100000000000000000000000000000000000000000000000000000000600052604160045260246000fd5b604051908082528060200260200182016040528015610fd557816020015b610fc2612a01565b815260200190600190039081610fba5790505b50905060005b848110156111d1573073ffffffffffffffffffffffffffffffffffffffff16600b600060018461100b919061380d565b815260200190815260200160002060020160009054906101000a900473ffffffffffffffffffffffffffffffffffffffff1673ffffffffffffffffffffffffffffffffffffffff1614156111be576000600182611068919061380d565b90506000600b60008381526020019081526020016000209050806040518060a0016040529081600082015481526020016001820160009054906101000a900473ffffffffffffffffffffffffffffffffffffffff1673ffffffffffffffffffffffffffffffffffffffff1673ffffffffffffffffffffffffffffffffffffffff1681526020016002820160009054906101000a900473ffffffffffffffffffffffffffffffffffffffff1673ffffffffffffffffffffffffffffffffffffffff1673ffffffffffffffffffffffffffffffffffffffff168152602001600382015481526020016004820160009054906101000a900460ff1615151515815250508486815181106111a1577f4e487b7100000000000000000000000000000000000000000000000000000000600052603260045260246000fd5b60200260200101819052506001856111b9919061380d565b945050505b80806111c9906139f3565b915050610fdb565b508094505050505090565b6060600180546111eb90613990565b80601f016020809104026020016040519081016040528092919081815260200182805461121790613990565b80156112645780601f1061123957610100808354040283529160200191611264565b820191906000526020600020905b81548152906001019060200180831161124757829003601f168201915b5050505050905090565b611280611279611b4e565b83836123dc565b5050565b600a60009054906101000a900473ffffffffffffffffffffffffffffffffffffffff1673ffffffffffffffffffffffffffffffffffffffff163373ffffffffffffffffffffffffffffffffffffffff1614611314576040517f08c379a000000000000000000000000000000000000000000000000000000000815260040161130b9061362f565b60405180910390fd5b8060098190555050565b61132f611329611b4e565b83611c0f565b61136e576040517f08c379a0000000000000000000000000000000000000000000000000000000008152600401611365906136cf565b60405180910390fd5b61137a84848484612549565b50505050565b6000600b60008381526020019081526020016000206003015490508034146113dd576040517f08c379a00000000000000000000000000000000000000000000000000000000081526004016113d49061358f565b60405180910390fd5b33600b600084815260200190815260200160002060020160006101000a81548173ffffffffffffffffffffffffffffffffffffffff021916908373ffffffffffffffffffffffffffffffffffffffff1602179055506001600b600084815260200190815260200160002060040160006101000a81548160ff0219169083151502179055506000600b600084815260200190815260200160002060020160006101000a81548173ffffffffffffffffffffffffffffffffffffffff021916908373ffffffffffffffffffffffffffffffffffffffff1602179055506114c16008611f19565b6114cc303384611ca4565b600a60009054906101000a900473ffffffffffffffffffffffffffffffffffffffff1673ffffffffffffffffffffffffffffffffffffffff166108fc6009549081150290604051600060405180830381858888f19350505050158015611536573d6000803e3d6000fd5b50600b600083815260200190815260200160002060010160009054906101000a900473ffffffffffffffffffffffffffffffffffffffff1673ffffffffffffffffffffffffffffffffffffffff166108fc349081150290604051600060405180830381858888f193505050501580156115b3573d6000803e3d6000fd5b505050565b606060006115c66007611f0b565b905060008060005b8381101561166f573373ffffffffffffffffffffffffffffffffffffffff16600b60006001846115fe919061380d565b815260200190815260200160002060020160009054906101000a900473ffffffffffffffffffffffffffffffffffffffff1673ffffffffffffffffffffffffffffffffffffffff16141561165c57600183611659919061380d565b92505b8080611667906139f3565b9150506115ce565b5060008267ffffffffffffffff8111156116b2577f4e487b7100000000000000000000000000000000000000000000000000000000600052604160045260246000fd5b6040519080825280602002602001820160405280156116eb57816020015b6116d8612a01565b8152602001906001900390816116d05790505b50905060005b848110156118e7573373ffffffffffffffffffffffffffffffffffffffff16600b6000600184611721919061380d565b815260200190815260200160002060020160009054906101000a900473ffffffffffffffffffffffffffffffffffffffff1673ffffffffffffffffffffffffffffffffffffffff1614156118d457600060018261177e919061380d565b90506000600b60008381526020019081526020016000209050806040518060a0016040529081600082015481526020016001820160009054906101000a900473ffffffffffffffffffffffffffffffffffffffff1673ffffffffffffffffffffffffffffffffffffffff1673ffffffffffffffffffffffffffffffffffffffff1681526020016002820160009054906101000a900473ffffffffffffffffffffffffffffffffffffffff1673ffffffffffffffffffffffffffffffffffffffff1673ffffffffffffffffffffffffffffffffffffffff168152602001600382015481526020016004820160009054906101000a900460ff1615151515815250508486815181106118b7577f4e487b7100000000000000000000000000000000000000000000000000000000600052603260045260246000fd5b60200260200101819052506001856118cf919061380d565b945050505b80806118df906139f3565b9150506116f1565b508094505050505090565b60606118fd82611b03565b600060066000848152602001908152602001600020805461191d90613990565b80601f016020809104026020016040519081016040528092919081815260200182805461194990613990565b80156119965780601f1061196b57610100808354040283529160200191611996565b820191906000526020600020905b81548152906001019060200180831161197957829003601f168201915b5050505050905060006119a76125a5565b90506000815114156119bd578192505050611a00565b6000825111156119f25780826040516020016119da929190613360565b60405160208183030381529060405292505050611a00565b6119fb846125bc565b925050505b919050565b6000600560008473ffffffffffffffffffffffffffffffffffffffff1673ffffffffffffffffffffffffffffffffffffffff16815260200190815260200160002060008373ffffffffffffffffffffffffffffffffffffffff1673ffffffffffffffffffffffffffffffffffffffff16815260200190815260200160002060009054906101000a900460ff16905092915050565b60007f01ffc9a7000000000000000000000000000000000000000000000000000000007bffffffffffffffffffffffffffffffffffffffffffffffffffffffff1916827bffffffffffffffffffffffffffffffffffffffffffffffffffffffff1916149050919050565b611b0c81612624565b611b4b576040517f08c379a0000000000000000000000000000000000000000000000000000000008152600401611b429061364f565b60405180910390fd5b50565b600033905090565b816004600083815260200190815260200160002060006101000a81548173ffffffffffffffffffffffffffffffffffffffff021916908373ffffffffffffffffffffffffffffffffffffffff160217905550808273ffffffffffffffffffffffffffffffffffffffff16611bc983610b86565b73ffffffffffffffffffffffffffffffffffffffff167f8c5be1e5ebec7d5bd14f71427d1e84f3dd0314c0f7b2291e5b200ac8c7c3b92560405160405180910390a45050565b600080611c1b83610b86565b90508073ffffffffffffffffffffffffffffffffffffffff168473ffffffffffffffffffffffffffffffffffffffff161480611c5d5750611c5c8185611a05565b5b80611c9b57508373ffffffffffffffffffffffffffffffffffffffff16611c8384610664565b73ffffffffffffffffffffffffffffffffffffffff16145b91505092915050565b8273ffffffffffffffffffffffffffffffffffffffff16611cc482610b86565b73ffffffffffffffffffffffffffffffffffffffff1614611d1a576040517f08c379a0000000000000000000000000000000000000000000000000000000008152600401611d11906134cf565b60405180910390fd5b600073ffffffffffffffffffffffffffffffffffffffff168273ffffffffffffffffffffffffffffffffffffffff161415611d8a576040517f08c379a0000000000000000000000000000000000000000000000000000000008152600401611d819061350f565b60405180910390fd5b611d95838383612690565b611da0600082611b56565b6001600360008573ffffffffffffffffffffffffffffffffffffffff1673ffffffffffffffffffffffffffffffffffffffff1681526020019081526020016000206000828254611df09190613894565b925050819055506001600360008473ffffffffffffffffffffffffffffffffffffffff1673ffffffffffffffffffffffffffffffffffffffff1681526020019081526020016000206000828254611e47919061380d565b92505081905550816002600083815260200190815260200160002060006101000a81548173ffffffffffffffffffffffffffffffffffffffff021916908373ffffffffffffffffffffffffffffffffffffffff160217905550808273ffffffffffffffffffffffffffffffffffffffff168473ffffffffffffffffffffffffffffffffffffffff167fddf252ad1be2c89b69c2b068fc378daa952ba7f163c4a11628f55a4df523b3ef60405160405180910390a4611f06838383612695565b505050565b600081600001549050919050565b6001816000016000828254019250508190555050565b600073ffffffffffffffffffffffffffffffffffffffff168273ffffffffffffffffffffffffffffffffffffffff161415611f9f576040517f08c379a0000000000000000000000000000000000000000000000000000000008152600401611f96906135cf565b60405180910390fd5b611fa881612624565b15611fe8576040517f08c379a0000000000000000000000000000000000000000000000000000000008152600401611fdf906134ef565b60405180910390fd5b611ff460008383612690565b6001600360008473ffffffffffffffffffffffffffffffffffffffff1673ffffffffffffffffffffffffffffffffffffffff1681526020019081526020016000206000828254612044919061380d565b92505081905550816002600083815260200190815260200160002060006101000a81548173ffffffffffffffffffffffffffffffffffffffff021916908373ffffffffffffffffffffffffffffffffffffffff160217905550808273ffffffffffffffffffffffffffffffffffffffff16600073ffffffffffffffffffffffffffffffffffffffff167fddf252ad1be2c89b69c2b068fc378daa952ba7f163c4a11628f55a4df523b3ef60405160405180910390a461210560008383612695565b5050565b61211282612624565b612151576040517f08c379a00000000000000000000000000000000000000000000000000000000081526004016121489061356f565b60405180910390fd5b80600660008481526020019081526020016000209080519060200190612178929190612a5e565b505050565b600081116121c0576040517f08c379a00000000000000000000000000000000000000000000000000000000081526004016121b79061360f565b60405180910390fd5b6009543414612204576040517f08c379a00000000000000000000000000000000000000000000000000000000081526004016121fb9061368f565b60405180910390fd5b6040518060a001604052808381526020013373ffffffffffffffffffffffffffffffffffffffff1681526020013073ffffffffffffffffffffffffffffffffffffffff16815260200182815260200160001515815250600b60008481526020019081526020016000206000820151816000015560208201518160010160006101000a81548173ffffffffffffffffffffffffffffffffffffffff021916908373ffffffffffffffffffffffffffffffffffffffff16021790555060408201518160020160006101000a81548173ffffffffffffffffffffffffffffffffffffffff021916908373ffffffffffffffffffffffffffffffffffffffff1602179055506060820151816003015560808201518160040160006101000a81548160ff02191690831515021790555090505061233d333084611ca4565b817fdebdb32cb5230ab727c9c361b16fdb2015df225c10e6a3e7f60ecd5dc5be45163330846000604051612374949392919061339f565b60405180910390a25050565b600081600001549050600081116123cc576040517f08c379a00000000000000000000000000000000000000000000000000000000081526004016123c39061348f565b60405180910390fd5b6001810382600001819055505050565b8173ffffffffffffffffffffffffffffffffffffffff168373ffffffffffffffffffffffffffffffffffffffff16141561244b576040517f08c379a00000000000000000000000000000000000000000000000000000000081526004016124429061352f565b60405180910390fd5b80600560008573ffffffffffffffffffffffffffffffffffffffff1673ffffffffffffffffffffffffffffffffffffffff16815260200190815260200160002060008473ffffffffffffffffffffffffffffffffffffffff1673ffffffffffffffffffffffffffffffffffffffff16815260200190815260200160002060006101000a81548160ff0219169083151502179055508173ffffffffffffffffffffffffffffffffffffffff168373ffffffffffffffffffffffffffffffffffffffff167f17307eab39ab6107e8899845ad3d59bd9653f200f220920489ca2b5937696c318360405161253c9190613452565b60405180910390a3505050565b612554848484611ca4565b6125608484848461269a565b61259f576040517f08c379a0000000000000000000000000000000000000000000000000000000008152600401612596906134af565b60405180910390fd5b50505050565b606060405180602001604052806000815250905090565b60606125c782611b03565b60006125d16125a5565b905060008151116125f1576040518060200160405280600081525061261c565b806125fb84612831565b60405160200161260c929190613360565b6040516020818303038152906040525b915050919050565b60008073ffffffffffffffffffffffffffffffffffffffff166002600084815260200190815260200160002060009054906101000a900473ffffffffffffffffffffffffffffffffffffffff1673ffffffffffffffffffffffffffffffffffffffff1614159050919050565b505050565b505050565b60006126bb8473ffffffffffffffffffffffffffffffffffffffff166129de565b15612824578373ffffffffffffffffffffffffffffffffffffffff1663150b7a026126e4611b4e565b8786866040518563ffffffff1660e01b815260040161270694939291906133e4565b602060405180830381600087803b15801561272057600080fd5b505af192505050801561275157506040513d601f19601f8201168201806040525081019061274e9190612e0a565b60015b6127d4573d8060008114612781576040519150601f19603f3d011682016040523d82523d6000602084013e612786565b606091505b506000815114156127cc576040517f08c379a00000000000000000000000000000000000000000000000000000000081526004016127c3906134af565b60405180910390fd5b805181602001fd5b63150b7a0260e01b7bffffffffffffffffffffffffffffffffffffffffffffffffffffffff1916817bffffffffffffffffffffffffffffffffffffffffffffffffffffffff191614915050612829565b600190505b949350505050565b60606000821415612879576040518060400160405280600181526020017f300000000000000000000000000000000000000000000000000000000000000081525090506129d9565b600082905060005b600082146128ab578080612894906139f3565b915050600a826128a49190613863565b9150612881565b60008167ffffffffffffffff8111156128ed577f4e487b7100000000000000000000000000000000000000000000000000000000600052604160045260246000fd5b6040519080825280601f01601f19166020018201604052801561291f5781602001600182028036833780820191505090505b5090505b600085146129d2576001826129389190613894565b9150600a856129479190613a3c565b6030612953919061380d565b60f81b81838151811061298f577f4e487b7100000000000000000000000000000000000000000000000000000000600052603260045260246000fd5b60200101907effffffffffffffffffffffffffffffffffffffffffffffffffffffffffffff1916908160001a905350600a856129cb9190613863565b9450612923565b8093505050505b919050565b6000808273ffffffffffffffffffffffffffffffffffffffff163b119050919050565b6040518060a0016040528060008152602001600073ffffffffffffffffffffffffffffffffffffffff168152602001600073ffffffffffffffffffffffffffffffffffffffff168152602001600081526020016000151581525090565b828054612a6a90613990565b90600052602060002090601f016020900481019282612a8c5760008555612ad3565b82601f10612aa557805160ff1916838001178555612ad3565b82800160010185558215612ad3579182015b82811115612ad2578251825591602001919060010190612ab7565b5b509050612ae09190612ae4565b5090565b5b80821115612afd576000816000905550600101612ae5565b5090565b6000612b14612b0f8461372f565b61370a565b905082815260208101848484011115612b2c57600080fd5b612b3784828561394e565b509392505050565b6000612b52612b4d84613760565b61370a565b905082815260208101848484011115612b6a57600080fd5b612b7584828561394e565b509392505050565b600081359050612b8c81614033565b92915050565b600081359050612ba18161404a565b92915050565b600081359050612bb681614061565b92915050565b600081519050612bcb81614061565b92915050565b600082601f830112612be257600080fd5b8135612bf2848260208601612b01565b91505092915050565b600082601f830112612c0c57600080fd5b8135612c1c848260208601612b3f565b91505092915050565b600081359050612c3481614078565b92915050565b600060208284031215612c4c57600080fd5b6000612c5a84828501612b7d565b91505092915050565b60008060408385031215612c7657600080fd5b6000612c8485828601612b7d565b9250506020612c9585828601612b7d565b9150509250929050565b600080600060608486031215612cb457600080fd5b6000612cc286828701612b7d565b9350506020612cd386828701612b7d565b9250506040612ce486828701612c25565b9150509250925092565b60008060008060808587031215612d0457600080fd5b6000612d1287828801612b7d565b9450506020612d2387828801612b7d565b9350506040612d3487828801612c25565b925050606085013567ffffffffffffffff811115612d5157600080fd5b612d5d87828801612bd1565b91505092959194509250565b60008060408385031215612d7c57600080fd5b6000612d8a85828601612b7d565b9250506020612d9b85828601612b92565b9150509250929050565b60008060408385031215612db857600080fd5b6000612dc685828601612b7d565b9250506020612dd785828601612c25565b9150509250929050565b600060208284031215612df357600080fd5b6000612e0184828501612ba7565b91505092915050565b600060208284031215612e1c57600080fd5b6000612e2a84828501612bbc565b91505092915050565b60008060408385031215612e4657600080fd5b600083013567ffffffffffffffff811115612e6057600080fd5b612e6c85828601612bfb565b9250506020612e7d85828601612c25565b9150509250929050565b600060208284031215612e9957600080fd5b6000612ea784828501612c25565b91505092915050565b60008060408385031215612ec357600080fd5b6000612ed185828601612c25565b9250506020612ee285828601612c25565b9150509250929050565b6000612ef883836132da565b60a08301905092915050565b612f0d816138da565b82525050565b612f1c816138c8565b82525050565b6000612f2d826137a1565b612f3781856137cf565b9350612f4283613791565b8060005b83811015612f73578151612f5a8882612eec565b9750612f65836137c2565b925050600181019050612f46565b5085935050505092915050565b612f89816138ec565b82525050565b612f98816138ec565b82525050565b6000612fa9826137ac565b612fb381856137e0565b9350612fc381856020860161395d565b612fcc81613b29565b840191505092915050565b6000612fe2826137b7565b612fec81856137f1565b9350612ffc81856020860161395d565b61300581613b29565b840191505092915050565b600061301b826137b7565b6130258185613802565b935061303581856020860161395d565b80840191505092915050565b600061304e601b836137f1565b915061305982613b3a565b602082019050919050565b60006130716032836137f1565b915061307c82613b63565b604082019050919050565b60006130946025836137f1565b915061309f82613bb2565b604082019050919050565b60006130b7601c836137f1565b91506130c282613c01565b602082019050919050565b60006130da6024836137f1565b91506130e582613c2a565b604082019050919050565b60006130fd6019836137f1565b915061310882613c79565b602082019050919050565b60006131206029836137f1565b915061312b82613ca2565b604082019050919050565b6000613143602e836137f1565b915061314e82613cf1565b604082019050919050565b60006131666040836137f1565b915061317182613d40565b604082019050919050565b6000613189603e836137f1565b915061319482613d8f565b604082019050919050565b60006131ac6020836137f1565b91506131b782613dde565b602082019050919050565b60006131cf602a836137f1565b91506131da82613e07565b604082019050919050565b60006131f26017836137f1565b91506131fd82613e56565b602082019050919050565b6000613215603a836137f1565b915061322082613e7f565b604082019050919050565b60006132386018836137f1565b915061324382613ece565b602082019050919050565b600061325b6021836137f1565b915061326682613ef7565b604082019050919050565b600061327e6023836137f1565b915061328982613f46565b604082019050919050565b60006132a16024836137f1565b91506132ac82613f95565b604082019050919050565b60006132c4602e836137f1565b91506132cf82613fe4565b604082019050919050565b60a0820160008201516132f06000850182613342565b5060208201516133036020850182612f04565b5060408201516133166040850182612f04565b5060608201516133296060850182613342565b50608082015161333c6080850182612f80565b50505050565b61334b81613944565b82525050565b61335a81613944565b82525050565b600061336c8285613010565b91506133788284613010565b91508190509392505050565b60006020820190506133996000830184612f13565b92915050565b60006080820190506133b46000830187612f13565b6133c16020830186612f13565b6133ce6040830185613351565b6133db6060830184612f8f565b95945050505050565b60006080820190506133f96000830187612f13565b6134066020830186612f13565b6134136040830185613351565b81810360608301526134258184612f9e565b905095945050505050565b6000602082019050818103600083015261344a8184612f22565b905092915050565b60006020820190506134676000830184612f8f565b92915050565b600060208201905081810360008301526134878184612fd7565b905092915050565b600060208201905081810360008301526134a881613041565b9050919050565b600060208201905081810360008301526134c881613064565b9050919050565b600060208201905081810360008301526134e881613087565b9050919050565b60006020820190508181036000830152613508816130aa565b9050919050565b60006020820190508181036000830152613528816130cd565b9050919050565b60006020820190508181036000830152613548816130f0565b9050919050565b6000602082019050818103600083015261356881613113565b9050919050565b6000602082019050818103600083015261358881613136565b9050919050565b600060208201905081810360008301526135a881613159565b9050919050565b600060208201905081810360008301526135c88161317c565b9050919050565b600060208201905081810360008301526135e88161319f565b9050919050565b60006020820190508181036000830152613608816131c2565b9050919050565b60006020820190508181036000830152613628816131e5565b9050919050565b6000602082019050818103600083015261364881613208565b9050919050565b600060208201905081810360008301526136688161322b565b9050919050565b600060208201905081810360008301526136888161324e565b9050919050565b600060208201905081810360008301526136a881613271565b9050919050565b600060208201905081810360008301526136c881613294565b9050919050565b600060208201905081810360008301526136e8816132b7565b9050919050565b60006020820190506137046000830184613351565b92915050565b6000613714613725565b905061372082826139c2565b919050565b6000604051905090565b600067ffffffffffffffff82111561374a57613749613afa565b5b61375382613b29565b9050602081019050919050565b600067ffffffffffffffff82111561377b5761377a613afa565b5b61378482613b29565b9050602081019050919050565b6000819050602082019050919050565b600081519050919050565b600081519050919050565b600081519050919050565b6000602082019050919050565b600082825260208201905092915050565b600082825260208201905092915050565b600082825260208201905092915050565b600081905092915050565b600061381882613944565b915061382383613944565b9250827fffffffffffffffffffffffffffffffffffffffffffffffffffffffffffffffff0382111561385857613857613a6d565b5b828201905092915050565b600061386e82613944565b915061387983613944565b92508261388957613888613a9c565b5b828204905092915050565b600061389f82613944565b91506138aa83613944565b9250828210156138bd576138bc613a6d565b5b828203905092915050565b60006138d382613924565b9050919050565b60006138e582613924565b9050919050565b60008115159050919050565b60007fffffffff0000000000000000000000000000000000000000000000000000000082169050919050565b600073ffffffffffffffffffffffffffffffffffffffff82169050919050565b6000819050919050565b82818337600083830152505050565b60005b8381101561397b578082015181840152602081019050613960565b8381111561398a576000848401525b50505050565b600060028204905060018216806139a857607f821691505b602082108114156139bc576139bb613acb565b5b50919050565b6139cb82613b29565b810181811067ffffffffffffffff821117156139ea576139e9613afa565b5b80604052505050565b60006139fe82613944565b91507fffffffffffffffffffffffffffffffffffffffffffffffffffffffffffffffff821415613a3157613a30613a6d565b5b600182019050919050565b6000613a4782613944565b9150613a5283613944565b925082613a6257613a61613a9c565b5b828206905092915050565b7f4e487b7100000000000000000000000000000000000000000000000000000000600052601160045260246000fd5b7f4e487b7100000000000000000000000000000000000000000000000000000000600052601260045260246000fd5b7f4e487b7100000000000000000000000000000000000000000000000000000000600052602260045260246000fd5b7f4e487b7100000000000000000000000000000000000000000000000000000000600052604160045260246000fd5b6000601f19601f8301169050919050565b7f436f756e7465723a2064656372656d656e74206f766572666c6f770000000000600082015250565b7f4552433732313a207472616e7366657220746f206e6f6e20455243373231526560008201527f63656976657220696d706c656d656e7465720000000000000000000000000000602082015250565b7f4552433732313a207472616e736665722066726f6d20696e636f72726563742060008201527f6f776e6572000000000000000000000000000000000000000000000000000000602082015250565b7f4552433732313a20746f6b656e20616c7265616479206d696e74656400000000600082015250565b7f4552433732313a207472616e7366657220746f20746865207a65726f2061646460008201527f7265737300000000000000000000000000000000000000000000000000000000602082015250565b7f4552433732313a20617070726f766520746f2063616c6c657200000000000000600082015250565b7f4552433732313a2061646472657373207a65726f206973206e6f74206120766160008201527f6c6964206f776e65720000000000000000000000000000000000000000000000602082015250565b7f45524337323155524953746f726167653a2055524920736574206f66206e6f6e60008201527f6578697374656e7420746f6b656e000000000000000000000000000000000000602082015250565b7f506c65617365207375626d6974207468652061736b696e67207072696365206960008201527f6e206f7264657220746f20636f6d706c65746520746865207075726368617365602082015250565b7f4552433732313a20617070726f76652063616c6c6572206973206e6f7420746f60008201527f6b656e206f776e6572206e6f7220617070726f76656420666f7220616c6c0000602082015250565b7f4552433732313a206d696e7420746f20746865207a65726f2061646472657373600082015250565b7f4f6e6c79206974656d206f776e65722063616e20706572666f726d207468697360008201527f206f7065726174696f6e00000000000000000000000000000000000000000000602082015250565b7f5072696365206d75737420626520616c206c6573742031000000000000000000600082015250565b7f6f6e6c79206f776e6572206f6620746865206d61726b6574706c61636520636160008201527f6e206368616e676520746865206c697374696e67207072696365000000000000602082015250565b7f4552433732313a20696e76616c696420746f6b656e2049440000000000000000600082015250565b7f4552433732313a20617070726f76616c20746f2063757272656e74206f776e6560008201527f7200000000000000000000000000000000000000000000000000000000000000602082015250565b7f50726963206d75737420626520657175616c20746f206c697374696e6720707260008201527f6963650000000000000000000000000000000000000000000000000000000000602082015250565b7f5072696365206d75737420626520657175616c20746f206c697374696e67207060008201527f7269636500000000000000000000000000000000000000000000000000000000602082015250565b7f4552433732313a2063616c6c6572206973206e6f7420746f6b656e206f776e6560008201527f72206e6f7220617070726f766564000000000000000000000000000000000000602082015250565b61403c816138c8565b811461404757600080fd5b50565b614053816138ec565b811461405e57600080fd5b50565b61406a816138f8565b811461407557600080fd5b50565b61408181613944565b811461408c57600080fd5b5056fea2646970667358221220852245f38465c408bcafa551513217619b4583191a10af1aea4ce68d7e2b458264736f6c63430008040033",
  "linkReferences": {},
  "deployedLinkReferences": {}
}